:1000000071C0000081C000007FC000007DC0000002
:100010007BC0000079C0000077C0000075C0000000
:1000200073C0000071C000006FC000006DC0000010
:100030006BC000006AC0000067C0000065C000001F
:1000400063C0000061C000005FC000005DC0000030
:100050005BC0000059C0000057C0000055C0000040
:1000600053C0000051C000004FC000004DC0000050
:100070004BC0000049C0000047C0000045C0000060
:1000800043C0000041C000003FC000003DC0000070
:100090003BC0000039C0000037C0000035C0000080
:1000A00033C0000031C000002FC000002DC0000090
:1000B0002BC0000029C0000027C0000025C00000A0
:1000C00023C0000021C000001FC000001DC00000B0
:1000D0001BC0000019C0000017C0000015C00000C0
:1000E00013C0000011241FBECFEFD1E2DEBFCDBF91
:1000F00000E00CBF22E0A0E0B2E001C01D92A231FE
:10010000B207E1F79ED03CC17BCF1F920F920FB692
:100110000F9211240BB60F922F933F934F935F933F
:100120006F938F939F93EF93FF931098119820E014
:1001300030E041E050E0E0910002F0E080911102F7
:10014000EE0FFF1FEE0FFF1FEF5FFD4FE80FF11DDA
:10015000808190E0022E02C0959587950A94E2F77F
:1001600080FD0FC08091110265B1FA0102C0EE0F4F
:10017000FF1F8A95E2F7CF0180959095862385B978
:100180000CC08091110265B1FA0102C0EE0FFF1F91
:100190008A95E2F7CF01862B85B9109A10982F5FC8
:1001A0003F4F2830310539F6119A8091110291E0C4
:1001B000980F90931102813011F410921102FF9167
:1001C000EF919F918F916F915F914F913F912F91FF
:1001D0000F900BBE0F900FBE0F901F9018950497B5
:1001E00048F46430710540F481E04430510528F052
:1001F00080E0089580E0089580E00895FF920F93D5
:100200001F93CF93DF93F82E8B01EA01E8DF882359
:1002100091F0CC0FDD1FCC0FDD1FCF5FDD4FC00F86
:10022000D11F288181E090E002C0880F991FFA94C5
:10023000E2F7822B8883DF91CF911F910F91FF907E
:1002400008958FEF81B984B912B815B8119A119831
:1002500082D0789440E050E060E070E080E090E090
:10026000CDDF2FE382E49FE0215080409040E1F712
:1002700000C0000040E050E060E070E081E090E00D
:10028000BDDF2FE382E49FE0215080409040E1F702
:1002900000C0000040E050E060E070E082E090E0EC
:1002A000ADDF2FE382E49FE0215080409040E1F7F2
:1002B00000C0000040E050E060E070E083E090E0CB
:1002C0009DDF2FE382E49FE0215080409040E1F7E2
:1002D00000C0000040E050E061E070E080E090E0AD
:1002E0008DDF2FE382E49FE0215080409040E1F7D2
:1002F00000C0000040E050E061E070E081E090E08C
:100300007DDF2FE382E49FE0215080409040E1F7C1
:1003100000C0000040E050E061E070E082E090E06A
:100320006DDF2FE382E49FE0215080409040E1F7B1
:1003300000C0000040E050E061E070E083E090E049
:100340005DDF2FE382E49FE0215080409040E1F7A1
:1003500000C000007FCF8AE08093B300E0EBF0E0C4
:10036000808182608083E1EBF0E080818660808321
:100370001092B200E0E7F0E080818260808308950F
:04038000F894FFCF1F
:00000001FF
