:1000000071C0000081C000007FC000007DC0000002
:100010007BC0000079C0000077C0000075C0000000
:1000200073C0000071C000006FC000006DC0000010
:100030006BC00000E8C0000067C0000065C00000A1
:1000400063C0000061C000005FC000005DC0000030
:100050005BC0000059C0000057C0000055C0000040
:1000600053C0000051C000004FC000004DC0000050
:100070004BC0000049C0000047C0000045C0000060
:1000800043C0000041C000003FC000003DC0000070
:100090003BC0000039C0000037C0000035C0000080
:1000A00033C0000031C000002FC000002DC0000090
:1000B0002BC0000029C0000027C0000025C00000A0
:1000C00023C0000021C000001FC000001DC00000B0
:1000D0001BC0000019C0000017C0000015C00000C0
:1000E00013C0000011241FBECFEFD1E2DEBFCDBF91
:1000F00000E00CBF22E0A0E0B2E001C01D92A131FF
:10010000B207E1F730D0D7C07BCF843038F4643009
:1001100038F481E0443028F080E0089580E00895CC
:1001200080E008951F93CF93DF93D82FC62F142F0D
:10013000ECDF8823A1F0EC2FF0E0EE0FFF1FEE0FB5
:10014000FF1FEF5FFD4FE10FF11D208181E090E087
:1001500002C0880F991FDA95E2F782278083DF912A
:10016000CF911F9108951092000290D08FEF81B926
:1001700084B987B912B815B818B87894D0E013C00C
:1001800040E06C2F8D2FCEDF2FE38DE093E02150E8
:1001900080409040E1F700C00000CF5FC43081F79D
:1001A000DF5FD43059F3C0E0EBCF67E070E0A1E04F
:1001B000B0E01CC080910002F901EE0FFF1FEE0FAE
:1001C000FF1FEF5FFD4FE80FF11D808190E084235A
:1001D0009523892B11F4289801C0289A1098109A19
:1001E0002150310938F76150710950F0AD01062EE8
:1001F00002C0440F551F0A94E2F723E030E0DACF43
:10020000119A119808951F920F920FB60F92112410
:100210000BB60F922F933F934F935F936F937F9300
:100220008F939F93AF93BF93EF93FF9388B188B958
:10023000BCDF8091000248B127E030E0281B310983
:1002400081E090E002C0880F991F2A95E2F7842B85
:1002500088B98091000291E0980F9093000283305A
:1002600011F410920002FF91EF91BF91AF919F9115
:100270008F917F916F915F914F913F912F910F904F
:100280000BBE0F900FBE0F901F9018958AE08093C1
:10029000B300E0EBF0E0808182608083E1EBF0E08E
:1002A0008081866080831092B200E0E7F0E0808178
:0A02B000826080830895F894FFCF68
:00000001FF
