:1000000071C000008EC000008CC000008AC00000DB
:1000100088C0000086C0000084C0000082C00000CC
:1000200080C000007EC000007CC000007AC00000DC
:1000300078C0000017C2000074C0000072C0000049
:1000400070C000006EC000006CC000006AC00000FC
:1000500068C0000066C0000064C0000062C000000C
:1000600060C000005EC000005CC000005AC000001C
:1000700058C0000056C0000054C0000052C000002C
:1000800050C000004EC000004CC000004AC000003C
:1000900048C0000046C0000044C0000042C000004C
:1000A00040C000003EC000003CC000003AC000005C
:1000B00038C0000036C0000034C0000032C000006C
:1000C00030C000002EC000002CC000002AC000007C
:1000D00028C0000026C0000024C0000022C000008C
:1000E00020C0000011241FBECFEFD1E2DEBFCDBF84
:1000F00000E00CBF22E0A4E0B2E001C01D92A931F3
:10010000B207E1F712E0A0E0B2E0E0ECF6E000E0D8
:100110000BBF02C007900D92A430B107D9F759D197
:10012000CDC26ECFFC010FB6F894609115027091AC
:10013000160280911702909118020FBE309721F09D
:1001400060837183828393830895009761F4089597
:1001500000000000000000000000000021503109F4
:10016000B9F7019719F02AE530E0F2CF08952F9200
:100170003F924F925F926F927F928F929F92AF9237
:10018000BF92CF92DF92EF92FF920F931F93CF9384
:10019000DF9300D000D0CDB7DEB74C011B015A83EE
:1001A0004983690180E002D18114910409F473C08C
:1001B000A12CB12C0F2EF6E04F2E512CF02D712CCE
:1001C000612C11D2B201B5D17C01892B09F100E07B
:1001D00010E009D29C838B8306D26B817C81637093
:1001E0007078772334F4615071096C6F7F6F6F5FA3
:1001F0007F4F83709078992324F401978C6F9F6FC1
:10020000019643E06ED00F5F1F4FE016F10609F72D
:1002100089819A819ADF00E010E02FC05E834D83D0
:10022000C901880F991F880F991F8B5F9D4FFC0193
:10023000E40FF51FE081860F971FDC01EC932F5F21
:100240003F4F2430310551F74330510539F0BA01A1
:1002500020E030E0AB014F5F5F4FE0CF63E08AE723
:1002600061D0C601B80151D1CB018C0D9D1D6DDF50
:100270000F5F1F4F0330110519F0672D762DE8CF62
:1002800080E094D0C10161DF9FEFA91AB90A8A14F6
:100290009B0409F096CF26960FB6F894DEBF0FBEEA
:1002A000CDBFDF91CF911F910F91FF90EF90DF9025
:1002B000CF90BF90AF909F908F907F906F905F9006
:1002C0004F903F902F900895843038F4643038F484
:1002D00081E0443028F080E0089580E0089580E0D7
:1002E00008951F93CF93DF93D82FC62F142FECDFE1
:1002F0008823A1F0EC2FF0E0EE0FFF1FEE0FFF1FA1
:10030000EB5FFD4FE10FF11D208181E090E002C025
:10031000880F991FDA95E2F7822B8083DF91CF91C6
:100320001F910895643008F040C0893749F18A3739
:10033000A1F18837D1F581E090E002C0880F991FC4
:100340006A95E2F7382F309560E070E00FC0FA014F
:10035000E80FF91F20812323208301968430910523
:10036000B1F76F5F7F4F64307105F9F080E090E086
:10037000AB01440F551F440F551F4B5F5D4FE7CF37
:10038000E62FF0E0EE0FFF1FEE0FFF1FEB5FFD4FBC
:1003900010821182128213820895E62FF0E0EB5F43
:1003A000FD4F1082148210861486089520E030E0FC
:1003B000F901EE0FFF1FEE0FFF1FEB5FFD4F808374
:1003C0008183828383832F5F3F4F2430310581F700
:1003D00008951092040284D08FEF81B984B98AB94C
:1003E00012B815B818B880E090E09CDEFFD0789481
:1003F00028E532E048EE53E060ED77E08AE090E0F7
:10040000B6DEF6CF67E070E0A1E0B0E01EC08091FC
:100410000402F901EE0FFF1FEE0FFF1FEB5FFD4F10
:10042000E80FF11D808190E084239523892B11F43E
:10043000289801C0289A1098109A2F5F3F4F2430B7
:10044000310529F76150710950F0AD01062E02C047
:10045000440F551F0A94E2F720E030E0D8CF119AFC
:10046000119808951F920F920FB60F9211240BB698
:100470000F922F933F934F935F936F937F938F933D
:100480009F93AF93BF93EF93FF9318B8BBDF309167
:10049000040228B181E090E002C0880F991F3A95CC
:1004A000E2F7822B88B98091040291E0980F909333
:1004B0000402833011F410920402FF91EF91BF9176
:1004C000AF919F918F917F916F915F914F913F91EC
:1004D0002F910F900BBE0F900FBE0F901F9018958D
:1004E0008EE18093B300E0EBF0E080818260808356
:1004F000E1EBF0E08081866080831092B200E0E75B
:10050000F0E08081826080830895AA1BBB1B51E1CB
:1005100007C0AA1FBB1FA617B70710F0A61BB70B73
:10052000881F991F5A95A9F780959095BC01CD0118
:10053000089597FB072E16F4009406D077FD08D097
:10054000E4DF07FC05D03EF4909581959F4F089518
:10055000709561957F4F08958F929F92AF92BF9251
:10056000CF92DF92EF92FF92CF93DF93EC016881FD
:1005700079818A819B81611571058105910521F43D
:1005800064E279ED8BE597E02DE133EF41E050E057
:1005900038D049015A019B01AC01A7EAB1E44DD022
:1005A0006B017C01ACEEB4EFA501940152D0DC01EB
:1005B000CB018C0D9D1DAE1DBF1DB7FF03C0019764
:1005C000A109B04888839983AA83BB839F77DF9171
:1005D000CF91FF90EF90DF90CF90BF90AF909F9022
:1005E0008F900895B9CF80E092E0B6CFA0E0B0E060
:1005F0008093000290930102A0930202B093030241
:100600000895052E97FB16F400940FD057FD05D0E2
:1006100024D007FC02D046F408C050954095309590
:1006200021953F4F4F4F5F4F08959095809570955E
:1006300061957F4F8F4F9F4F089531D0A59F900DAB
:10064000B49F900DA49F800D911D11240895B7FFB4
:10065000F4CFF3DF821B930B0895A1E21A2EAA1B9D
:10066000BB1BFD010DC0AA1FBB1FEE1FFF1FA21762
:10067000B307E407F50720F0A21BB30BE40BF50B5F
:10068000661F771F881F991F1A9469F760957095E8
:10069000809590959B01AC01BD01CF010895A29F6B
:1006A000B001B39FC001A39F700D811D1124911D46
:1006B000B29F700D811D1124911D0895F894FFCFF4
:0406C0000100000035
:00000001FF
